{
  "contractName": "SecretNote",
  "abi": [
    {
      "constant": true,
      "inputs": [
        {
          "name": "_index",
          "type": "uint256"
        }
      ],
      "name": "getNoteKeyByIndex",
      "outputs": [
        {
          "name": "",
          "type": "bytes32"
        }
      ],
      "payable": false,
      "stateMutability": "view",
      "type": "function"
    },
    {
      "constant": true,
      "inputs": [],
      "name": "getNoteKeysCount",
      "outputs": [
        {
          "name": "",
          "type": "uint256"
        }
      ],
      "payable": false,
      "stateMutability": "view",
      "type": "function"
    },
    {
      "constant": true,
      "inputs": [
        {
          "name": "_user",
          "type": "address"
        }
      ],
      "name": "userExisted",
      "outputs": [
        {
          "name": "",
          "type": "bool"
        }
      ],
      "payable": false,
      "stateMutability": "view",
      "type": "function"
    },
    {
      "constant": false,
      "inputs": [
        {
          "name": "_noteKey",
          "type": "bytes32"
        },
        {
          "name": "_content",
          "type": "bytes32"
        }
      ],
      "name": "setNote",
      "outputs": [],
      "payable": true,
      "stateMutability": "payable",
      "type": "function"
    },
    {
      "constant": true,
      "inputs": [
        {
          "name": "_index",
          "type": "uint256"
        }
      ],
      "name": "getUserAddress",
      "outputs": [
        {
          "name": "",
          "type": "address"
        }
      ],
      "payable": false,
      "stateMutability": "view",
      "type": "function"
    },
    {
      "constant": true,
      "inputs": [
        {
          "name": "_noteKey",
          "type": "bytes32"
        }
      ],
      "name": "getNote",
      "outputs": [
        {
          "name": "",
          "type": "bytes32"
        }
      ],
      "payable": false,
      "stateMutability": "view",
      "type": "function"
    },
    {
      "constant": true,
      "inputs": [],
      "name": "getUserCount",
      "outputs": [
        {
          "name": "",
          "type": "uint256"
        }
      ],
      "payable": false,
      "stateMutability": "view",
      "type": "function"
    },
    {
      "constant": false,
      "inputs": [],
      "name": "destroyAccount",
      "outputs": [
        {
          "name": "",
          "type": "bool"
        }
      ],
      "payable": false,
      "stateMutability": "nonpayable",
      "type": "function"
    },
    {
      "constant": false,
      "inputs": [
        {
          "name": "_to",
          "type": "address"
        },
        {
          "name": "_amount",
          "type": "uint256"
        }
      ],
      "name": "withdraw",
      "outputs": [],
      "payable": false,
      "stateMutability": "nonpayable",
      "type": "function"
    },
    {
      "inputs": [],
      "payable": false,
      "stateMutability": "nonpayable",
      "type": "constructor"
    },
    {
      "payable": true,
      "stateMutability": "payable",
      "type": "fallback"
    },
    {
      "anonymous": false,
      "inputs": [
        {
          "indexed": true,
          "name": "_sender",
          "type": "address"
        },
        {
          "indexed": true,
          "name": "_noteKey",
          "type": "bytes32"
        },
        {
          "indexed": false,
          "name": "_success",
          "type": "bool"
        }
      ],
      "name": "SecretNoteUpdated",
      "type": "event"
    }
  ],
  "bytecode": "0x6060604052341561000f57600080fd5b336000806101000a81548173ffffffffffffffffffffffffffffffffffffffff021916908373ffffffffffffffffffffffffffffffffffffffff160217905550610bad8061005e6000396000f300606060405260043610610099576000357c0100000000000000000000000000000000000000000000000000000000900463ffffffff168063141172281461009b5780631dce0b5c146100da5780636519fac2146101035780637b73aef81461015457806390d976e21461017d57806398df3d00146101e0578063b5cb15f714610223578063eb0331d51461024c578063f3fef3a314610279575b005b34156100a657600080fd5b6100bc60048080359060200190919050506102bb565b60405180826000191660001916815260200191505060405180910390f35b34156100e557600080fd5b6100ed61031f565b6040518082815260200191505060405180910390f35b341561010e57600080fd5b61013a600480803573ffffffffffffffffffffffffffffffffffffffff1690602001909190505061036c565b604051808215151515815260200191505060405180910390f35b61017b60048080356000191690602001909190803560001916906020019091905050610439565b005b341561018857600080fd5b61019e6004808035906020019091905050610607565b604051808273ffffffffffffffffffffffffffffffffffffffff1673ffffffffffffffffffffffffffffffffffffffff16815260200191505060405180910390f35b34156101eb57600080fd5b6102056004808035600019169060200190919050506106b8565b60405180826000191660001916815260200191505060405180910390f35b341561022e57600080fd5b61023661071d565b6040518082815260200191505060405180910390f35b341561025757600080fd5b61025f610785565b604051808215151515815260200191505060405180910390f35b341561028457600080fd5b6102b9600480803573ffffffffffffffffffffffffffffffffffffffff169060200190919080359060200190919050506109f3565b005b6000600160003373ffffffffffffffffffffffffffffffffffffffff1673ffffffffffffffffffffffffffffffffffffffff1681526020019081526020016000206001018281548110151561030c57fe5b9060005260206000209001549050919050565b6000600160003373ffffffffffffffffffffffffffffffffffffffff1673ffffffffffffffffffffffffffffffffffffffff16815260200190815260200160002060010180549050905090565b60008060028054905014156103845760009050610434565b8173ffffffffffffffffffffffffffffffffffffffff16600260018060008673ffffffffffffffffffffffffffffffffffffffff1673ffffffffffffffffffffffffffffffffffffffff16815260200190815260200160002060020154038154811015156103ee57fe5b906000526020600020900160009054906101000a900473ffffffffffffffffffffffffffffffffffffffff1673ffffffffffffffffffffffffffffffffffffffff161490505b919050565b600080600084600019161415151561045057600080fd5b600083600019161415151561046457600080fd5b339150600160008373ffffffffffffffffffffffffffffffffffffffff1673ffffffffffffffffffffffffffffffffffffffff16815260200190815260200160002090506000816000016000866000191660001916815260200190815260200160002054600019161415610504578060010180548060010182816104e89190610a92565b9160005260206000209001600086909190915090600019169055505b82816000016000866000191660001916815260200190815260200160002081600019169055506000816002015414156105a9576002805480600101828161054b9190610abe565b9160005260206000209001600084909190916101000a81548173ffffffffffffffffffffffffffffffffffffffff021916908373ffffffffffffffffffffffffffffffffffffffff1602179055505060028054905081600201819055505b83600019168273ffffffffffffffffffffffffffffffffffffffff167f73379c54f10b22c6ed48d0f46a5bb03c52c964f56b243337f3984e1a572824286001604051808215151515815260200191505060405180910390a350505050565b60003373ffffffffffffffffffffffffffffffffffffffff166000809054906101000a900473ffffffffffffffffffffffffffffffffffffffff1673ffffffffffffffffffffffffffffffffffffffff1614151561066457600080fd5b60008211151561067357600080fd5b60026001830381548110151561068557fe5b906000526020600020900160009054906101000a900473ffffffffffffffffffffffffffffffffffffffff169050919050565b6000600160003373ffffffffffffffffffffffffffffffffffffffff1673ffffffffffffffffffffffffffffffffffffffff16815260200190815260200160002060000160008360001916600019168152602001908152602001600020549050919050565b60003373ffffffffffffffffffffffffffffffffffffffff166000809054906101000a900473ffffffffffffffffffffffffffffffffffffffff1673ffffffffffffffffffffffffffffffffffffffff1614151561077a57600080fd5b600280549050905090565b6000806000803392506107978361036c565b15156107a257600080fd5b600160008473ffffffffffffffffffffffffffffffffffffffff1673ffffffffffffffffffffffffffffffffffffffff16815260200190815260200160002060020154915060026001600280549050038154811015156107fe57fe5b906000526020600020900160009054906101000a900473ffffffffffffffffffffffffffffffffffffffff1690508273ffffffffffffffffffffffffffffffffffffffff168173ffffffffffffffffffffffffffffffffffffffff1614156108d457600160008473ffffffffffffffffffffffffffffffffffffffff1673ffffffffffffffffffffffffffffffffffffffff16815260200190815260200160002060006001820160006108b19190610aea565b6002820160009055505060006002816108ca9190610b0b565b50600193506109ed565b806002600184038154811015156108e757fe5b906000526020600020900160006101000a81548173ffffffffffffffffffffffffffffffffffffffff021916908373ffffffffffffffffffffffffffffffffffffffff16021790555081600160008373ffffffffffffffffffffffffffffffffffffffff1673ffffffffffffffffffffffffffffffffffffffff16815260200190815260200160002060020181905550600280548091906001900361098c9190610b0b565b50600160008473ffffffffffffffffffffffffffffffffffffffff1673ffffffffffffffffffffffffffffffffffffffff16815260200190815260200160002060006001820160006109de9190610aea565b60028201600090555050600193505b50505090565b3373ffffffffffffffffffffffffffffffffffffffff166000809054906101000a900473ffffffffffffffffffffffffffffffffffffffff1673ffffffffffffffffffffffffffffffffffffffff16141515610a4e57600080fd5b8173ffffffffffffffffffffffffffffffffffffffff166108fc829081150290604051600060405180830381858888f193505050501515610a8e57600080fd5b5050565b815481835581811511610ab957818360005260206000209182019101610ab89190610b37565b5b505050565b815481835581811511610ae557818360005260206000209182019101610ae49190610b5c565b5b505050565b5080546000825590600052602060002090810190610b089190610b37565b50565b815481835581811511610b3257818360005260206000209182019101610b319190610b5c565b5b505050565b610b5991905b80821115610b55576000816000905550600101610b3d565b5090565b90565b610b7e91905b80821115610b7a576000816000905550600101610b62565b5090565b905600a165627a7a7230582045a7558827c3ef919fd9596458d664c1903e60d73f407872fe98bc51ca8bc8340029",
  "source": "pragma solidity ^0.4.18;\n\n/**\n * @title Ownable\n * @dev The Ownable contract has an owner address, and provides basic authorization control\n * functions, this simplifies the implementation of \"user permissions\".\n */\ncontract Ownable {\n    address owner;\n\n    /**\n     * @dev The Ownable constructor sets the original `owner` of the contract to the sender\n     * account.\n     */\n    function Ownable() public {\n        owner = msg.sender;\n    }\n\n    /**\n     * @dev Throws if called by any account other than the owner.\n     */\n    modifier onlyOwner() {\n        require(owner == msg.sender);\n        _;\n    }\n}\n\n/**\n * @title Secret Note\n */\ncontract SecretNote is Ownable {\n    struct UserInfo {\n        mapping(bytes32 => bytes32) notes;\n        bytes32[] noteKeys;\n        uint256 index; // 1-based\n    }\n\n    mapping(address => UserInfo) private registerUsers;\n    address[] private userIndex;\n\n    event SecretNoteUpdated(address indexed _sender, bytes32 indexed _noteKey, bool _success);\n\n    function SecretNote() public {\n    }\n\n    function userExisted(address _user) public constant returns (bool) {\n        if (userIndex.length == 0) {\n            return false;\n        }\n\n        return (userIndex[registerUsers[_user].index - 1] == _user);\n    }\n\n    function () public payable {\n    }\n\n    /**\n     * @dev for owner to withdraw ETH from donators if there is any.  :)\n     * @param _to The address where withdraw to\n     * @param _amount The amount of ETH to withdraw\n     */\n    function withdraw(address _to, uint _amount) public onlyOwner {\n        _to.transfer(_amount);\n    }\n\n    /**\n     * @dev For owner to check registered user count\n     */\n    function getUserCount() public view onlyOwner returns (uint256) {\n        return userIndex.length;\n    }\n\n    /**\n     * @dev For owner to check registered user address based on index\n     * @param _index Starting from 1\n     */\n    function getUserAddress(uint256 _index) public view onlyOwner returns (address) {\n        require(_index > 0);\n        return userIndex[_index - 1];\n    }\n\n    /**\n     * @dev For user to get their own secret note\n     * @param _noteKey The key identifier for particular note\n     */\n    function getNote(bytes32 _noteKey) public view returns (bytes32) {\n        return registerUsers[msg.sender].notes[_noteKey];\n    }\n\n    /**\n     * @dev For user to get their own secret note keys count\n     */\n    function getNoteKeysCount() public view returns (uint256) {\n        return registerUsers[msg.sender].noteKeys.length;\n    }\n\n    /**\n     * @dev For user to get their own secret note key by index\n     * @param _index The 0-based index for particular note\n     */\n    function getNoteKeyByIndex(uint256 _index) public view returns (bytes32) {\n        return registerUsers[msg.sender].noteKeys[_index];\n    }\n\n    /**\n     * @dev For user to update their own secret note\n     * @param _noteKey The key identifier for particular note\n     * @param _content The note path hash\n     */\n    function setNote(bytes32 _noteKey, bytes32 _content) public payable {\n        require(_noteKey != \"\");\n        require(_content != \"\");\n\n        var userAddr = msg.sender;\n        var user = registerUsers[userAddr];\n        if (user.notes[_noteKey] == \"\") {\n            user.noteKeys.push(_noteKey);\n        }\n        user.notes[_noteKey] = _content;\n\n        if (user.index == 0) {\n            userIndex.push(userAddr);\n            user.index = userIndex.length;\n        }\n        SecretNoteUpdated(userAddr, _noteKey, true);\n    }\n\n    /**\n     * @dev Destroy one's account\n     */\n    function destroyAccount() public returns (bool) {\n        var userAddr = msg.sender;\n        require(userExisted(userAddr));\n\n        uint delIndex = registerUsers[userAddr].index;\n        address userToMove = userIndex[userIndex.length - 1];\n\n        if (userToMove == userAddr) {\n            delete(registerUsers[userAddr]);\n            userIndex.length = 0;\n            return true;\n        }\n\n        userIndex[delIndex - 1] = userToMove;\n        registerUsers[userToMove].index = delIndex;\n        userIndex.length--;\n        delete(registerUsers[userAddr]);\n        return true;\n    }\n}\n",
  "sourcePath": "/Users/kenchen/Workspace/Projects/personal/secret-note/contracts/SecretNote.sol",
  "compiler": {
    "name": "solc",
    "version": "0.4.18+commit.9cf6e910.Emscripten.clang"
  },
  "schemaVersion": "1.0.1",
  "updatedAt": "2018-01-22T10:51:53.872Z"
}